:1000000012C070C12BC02AC015C128C027C026C08D
:1000100025C024C023C022C021C020C01FC01EC0D4
:100020001DC01CC01BC011241FBECFE5D4E0DEBF25
:10003000CDBF10E0A0E6B0E0ECE1F4E002C0059036
:100040000D92AA3DB107D9F710E0AAEDB0E001C0CA
:100050001D92A23EB107E1F799D1DEC1D1CF90BD8B
:1000600089B988E08AB986E880BD089553980895D3
:100070005D9BFECF8CB90895FC0104C05D9BFECF53
:1000800031968CB980818823C9F70895CF93DF9387
:10009000EC0180E197E222E330E0F9013197F1F7DA
:1000A0000197D9F780E690E0E7DF80E197E222E36D
:1000B00030E0F9013197F1F70197D9F785E690E043
:1000C000DBDF80E197E222E330E0F9013197F1F7DD
:1000D0000197D9F781E790E0CFDF80E197E222E353
:1000E00030E0F9013197F1F70197D9F7CE01C4DF7C
:1000F00080E197E222E330E0F9013197F1F70197CF
:10010000D9F75D9BFECF8AE18CB980E29EE422E3C1
:1001100030E0F9013197F1F70197D9F7DF91CF91ED
:1001200008958130910569F480E090E028EA31E695
:10013000F9013197F1F7019644E0803B9407C1F74C
:1001400008958230910569F480E090E028EA31E674
:10015000F9013197F1F7019641E0843F9407C1F727
:100160000895039761F480E090E028EA31E6F90110
:100170003197F1F7019641E08C329407C1F7089569
:100180000F931F93CF93DF93C0E0D0E002E310E022
:1001900080E690E071DF80E49FE1F8013197F1F7AC
:1001A0000197D9F72196CA30D10591F7DF91CF9108
:1001B0001F910F91089547988091E10086B940E022
:1001C00050E020E030E0369A3699FECF84B195B108
:1001D000480F591F2F5F3F4F23303105A1F7485675
:1001E0005A40A4F410BC8CE089B988E08AB986E84A
:1001F00080BDC09882E090E094DFC2DF8AE890E0A2
:1002000045DF81E08093DD005398C09A479A0895B6
:1002100082B5886082BD85E085BD82B590E087703B
:100220009070892BD1F788B7806488BF89B78064C4
:1002300089BF08951F920F920FB60F9211242F932A
:100240003F934F935F936F937F938F939F93AF935E
:10025000BF93EF93FF938091DD008823C1F48091D9
:10026000DA008F5F8093DA008091DA00803F78F0C7
:100270008091DF008F5F8093DF008091DF008C33FF
:1002800018F099DF1092DF001092DA0014BC809110
:10029000DB008F5F8093DB008091DB009091DE00BC
:1002A0008E3178F0913069F48091E0008F5F809317
:1002B000E0008091E0008E3110F01092DE0010928C
:1002C000DB00FF91EF91BF91AF919F918F917F9153
:1002D0006F915F914F913F912F910F900FBE0F90B3
:1002E0001F9018951F920F920FB60F9211242F9303
:1002F0003F934F935F936F937F938F939F93AF93AE
:10030000BF93EF93FF938091DE008823B1F410BC7C
:100310008CE089B988E08AB986E880BDC09882E01F
:1003200090E0FFDE2DDF89EA90E0B0DE81E080938F
:10033000DE001092DB00C09A5398FF91EF91BF91BD
:10034000AF919F918F917F916F915F914F913F916D
:100350002F910F900FBE0F901F901895479AC09A3B
:10036000789485B78F78806385BF88EA91E6019796
:10037000F1F785B7806885BF889585B78F7785BF8A
:100380008CE792E90197F1F7F89408958FEF88BB15
:1003900085BB8FE382BBB89AC098B99AC19A80E1B5
:1003A00097E222E330E0F9013197F1F70197D9F7AD
:1003B0008A98929A81E090E0B4DE87E886B986B1A7
:1003C0008093E10085EC87B98FEF84BBA59810BCC2
:1003D0008CE089B988E08AB986E880BD81EC90E03C
:1003E0004BDECEDE8091DD00882319F48FEC90E0A7
:1003F0004DDE80E197E222E330E0F9013197F1F739
:100400000197D9F753983798C09A8BB780648BBF00
:0C041000FFDE7894A3DFFECFF894FFCF4E
:10041C0041540D0A0041542B434D47463D310D0AC2
:10042C000041542B434D47533D222B34383636383C
:10043C00313731393235220D0A004D69656A7363E3
:10044C006520312E204E69736B69207374616E20A8
:10045C006261746572696921004D69656A736365CF
:10046C0020312E2057796B7279746F207275636806
:10047C000041542B4950523D393630300D0A00534F
:0A048C00797374656D204F4B00007A
:00000001FF
